:100000000C9414020C9431020C9431020C943102C1
:100010000C9431020C9431020C9431020C94310294
:100020000C9431020C9431020C9431020C94310284
:100030000C9431020C9431020C9431020C94310274
:100040000C9431020C9431020C9431020C94310264
:100050000C9431020C9431020C9431020C94310254
:100060000C9431020C9431020909436F7079726962
:100070006768742028432920323030372C20536998
:10008000676D614F626A6563747320496E632E0DFC
:100090000A000D0A09092020202020546F796F746E
:1000A00061204156432D4C616E2041555820456ECC
:1000B00061626C65720D0A000D0A00202020446503
:1000C000736372697074696F6E3A20202020000D8E
:1000D0000A41555820456E61626C6572202D2D2DA8
:1000E0003E3E2048550D0A000D0A41555820456EE8
:1000F00061626C6572203C3C2D2D2D2048550D0A07
:100100000041766350726F63657373416374696F06
:100110006E49443A20556E6B6E6F776E2061637442
:10012000696F6E204944210D0A00556E6B6E6F7722
:100130006E206D657373616765210041766352655A
:1001400061644D6573736167653A20546869732013
:100150006D65737361676520697320666F72206DCA
:1001600065210D0A00417663526561644D657373C4
:100170006167653A20506172697479206572726FA7
:10018000722040204461746153697A65210D0A0030
:10019000417663526561644D6573736167653A20AA
:1001A000506172697479206572726F7220402043C9
:1001B0006F6E74726F6C210D0A0041766352656137
:1001C000644D6573736167653A2050617269747933
:1001D000206572726F72204020536C6176654164B5
:1001E0006472657373210D0A004176635265616420
:1001F0004D6573736167653A205061726974792047
:100200006572726F722040204D6173746572416433
:100210006472657373210D0A00010005000111511C
:100220006100000000000044697361626C65204158
:100230005558000000000000010005000111506148
:10024000000000000000456E61626C652041555859
:100250000000000000000001000411014501000041
:10026000000000000041555820696E20757365003C
:1002700000000000000002000411014560000000C1
:100280000000000054756E657220696E20757365FC
:10029000000000000003000411014561000000009F
:1002A0000000005461706520696E20757365000060
:1002B000000000000400041101456200000000007D
:1002C0000000434420696E20757365000000000043
:1002D00000000000000311014600000000000000C3
:1002E000004E6F2064657669636520696E207573C2
:1002F0006500000003110120000000000000000064
:1003000050696E670000000000000000000000005F
:10031000000700056031F1010100000000000054F9
:10032000756E65722053746174757300000000006F
:1003300005000A6231F10030010100000080456AC9
:1003400065637420434400000000000000000006C4
:10035000000A6231F100F80101000000804E6F20B8
:1003600043440000000000000000000000000800FE
:10037000047431F1900000000000000041756469D0
:100380006F2053746174757300000000000900034E
:1003900000010A00000000000000004C414E205304
:1003A0007461747573000000000000000A000311FE
:1003B000010000000000000000004C414E2052658A
:1003C00067697374657200000000000B000311017F
:1003D0000100000000000000004C414E20526573F7
:1003E000746172740000000000000C000311012011
:1003F00000000000000000004C414E20436865638F
:100400006B00000000000000000000000000000081
:1004100000000000000000000000000000000000DC
:10042000000000000000000011241FBECFEFD8E044
:10043000DEBFCDBF11E0A0E0B1E0E0E0F0E102C03E
:1004400005900D92AC3FB107D9F723E0ACEFB1E0D6
:1004500001C01D92AA35B207E1F70E9447020C9431
:10046000FE070C940000259A2D9A82E085BD0E941B
:1004700077025B9A5A982FE088E190E00FB6F894E3
:10048000A895809360000FBE2093600008950E949D
:10049000330282E990E00E94A60288E690E00E9482
:1004A000A60280E091E09F938F938CE091E09F9370
:1004B0008F9381E191E09F938F938CEF91E09F93D5
:1004C0008F930E942D058CEF91E00E949A028DB7C8
:1004D0009EB708960FB6F8949EBF0FBE8DBFA89525
:1004E0000E9415040097D9F30E941303F8CFE1ECA2
:1004F000F0E010821092C00086E88093C20087E688
:100500008093C400589A88E1808308958091C00048
:10051000881F8827881F08958091C00087FFFCCF1F
:100520008091C60008959091C00095FFFCCF809304
:10053000C6000895CF93DF93EC018991882319F0C9
:100540000E949302FACFDF91CF910895CF93DF936A
:10055000FC018491EF012196882321F00E949302EF
:10056000FE01F7CFDF91CF9108959C01225F3F4FAD
:100570003093590320935803FC01249141E0211149
:1005800001C040E04093570320E633E03093560328
:1005900020935503411103C02FEF31E002C020E941
:1005A00031E03093540320935303FC01329644917D
:1005B00040935103319620E532E0D9015A2F521B66
:1005C000541720F454915D933196F8CF0895282F55
:1005D0001092500380E090E041E02150A8F0880F95
:1005E000991F00B605FC02C0A895FBCF16BC00B64B
:1005F00005FCFDCF36B5343380F781603091500370
:10060000342730935003E9CF089516BC8AB18C602B
:100610008AB986B58034E8F38AB1837F8AB986B512
:100620008A34E8F30895853091054CF482309105C1
:100630004CF40197A1F581E080934F0234C00597F7
:1006400041F02DC090934E0280934D0210924F02C4
:100650002AC080914D0290914E02049721F1809121
:100660004F02882339F089E192E00E94B50210928E
:100670004F0207C088E392E00E94B50281E08093B8
:100680004F0216BC00B605FCFCCF86B58B34D0F308
:100690002D9816BC8AB18C608AB986B5FECF81E0F0
:1006A00091E00E94A60280E0089581E080935703C4
:1006B00080E693E0909356038093550380E991E0A0
:1006C00090935403809353038FE0809352038AE006
:1006D00090E00E94130381E00895FF920F931F930F
:1006E000CF93DF93882319F088EE90E002C08FEC5F
:1006F00090E00E94A6028BEB90E00E94A6028091FF
:100700005803909159030E94A60288EB90E00E9442
:10071000A602809157031F928F938CE291E09F93E2
:100720008F93CCEFD1E0DF93CF930E942D05CE01C4
:100730000E949A02809156038F93809155038F9364
:1007400085E491E09F938F93DF93CF930E942D05D3
:10075000CE010E949A02809154038F93809153039B
:100760008F9380E691E09F938F93DF93CF930E94C6
:100770002D05CE010E949A02809152031F928F9301
:100780008BE791E09F938F93DF93CF930E942D058A
:10079000CE010E949A02809151031F928F9386E9A5
:1007A00091E09F938F93DF93CF930E942D05CE010D
:1007B0000E949A026FEA71E0CE010E942605CE01E6
:1007C0000E949A028DB79EB74E960FB6F8949EBFC0
:1007D0000FBE8DBFF12CC3ECD1E00CEF11E0809186
:1007E0005103F816C8F4EF2DF0E0E05BFD4F808177
:1007F0001F928F93DF93CF931F930F930E942D052A
:100800008CEF91E00E949A02F3940F900F900F905A
:100810000F900F900F90E3CF87EC91E0DF91CF9195
:100820001F910F91FF900C949A02AF92BF92CF92BA
:10083000DF92EF92FF920F931F93CF93DF9381E0AC
:100840000E94E7022D9881E00E94E70221E0892BB7
:1008500009F420E0209357038CE00E94E702909374
:10086000560380935503C0915003D0E081E00E946D
:10087000E702C817D90719F089EE91E04AC08CE069
:100880000E94E702EC01909354038093530300917C
:10089000500310E081E00E94E7020817190719F0E1
:1008A0008AEB91E036C0BB24B394C036D34029F024
:1008B000B12C81E00E94E70202C00E94050384E09F
:1008C0000E94E70280935203C0915003D0E081E080
:1008D0000E94E702C817D90719F080E991E019C012
:1008E000BB2019F00E94050303C081E00E94E702CB
:1008F00088E00E94E702A82E80935103C091500324
:10090000D0E081E00E94E702C817D90729F085E608
:1009100091E00E94A6023CC0BB2019F00E94050392
:1009200003C081E00E94E70240E5E42E42E0F42E9D
:10093000E70104C0BB2079F10E9405038C2F8E19BA
:100940008A1568F58E010055124088E00E94E70282
:100950008993C0905003D12C81E00E94E702C81611
:10096000D90641F31F930F9381ED91E09F938F93ED
:100970008CEF91E09F938F930E942D058CEF91E077
:100980000E949A020F900F900F900F900F900F906F
:10099000C0E0D0E04FC081E00E94E702CFCFBB2093
:1009A00021F08BE391E00E94A6028AE291E090930D
:1009B00059038093580329E532E080E090E0BFE1DD
:1009C000A0E0B89FB001B99F700D1124F9014491C6
:1009D000A417E8F44A2F50E0FA01E60FF71FE65A91
:1009E000FD4FE491EA01C05BDD4F48814E1302C028
:1009F000AF5FECCF0196215E3F4F8F30910501F73D
:100A0000C0E0D0E080E00E946D032D9A13C02FE17A
:100A1000289FF001299FF00D1124CF018B599D4F84
:100A20009093590380935803E95AFD4FE491CE2FD8
:100A3000D0E0E8CFCE01DF91CF911F910F91FF90D1
:100A4000EF90DF90CF90BF90AF900895FB01DC0155
:100A500001900D920020E1F70895AEE0B0E0E3E3ED
:100A6000F5E00C94D5070D891E8986E08C831A83E6
:100A700009838FEF9FE79E838D83AE01475E5F4FB3
:100A80006F89788DCE0101960E944F05EF81F88520
:100A9000E00FF11F10822E96E4E00C94F107ACE019
:100AA000B0E0E5E5F5E00C94C7077C016B018A0135
:100AB000FC0117821682838181FFBDC1CE010196A0
:100AC0004C01F7019381F60193FD859193FF81918C
:100AD0006F01882309F4ABC1853239F493FD859108
:100AE00093FF81916F01853229F4B70190E00E9454
:100AF0003707E7CF512C312C20E02032A0F48B3285
:100B000069F030F4803259F0833269F420612CC0EE
:100B10008D3239F0803339F4216026C022602460A0
:100B200023C0286021C027FD27C030ED380F3A30A0
:100B300078F426FF06C0FAE05F9E300D1124532E94
:100B400013C08AE0389E300D1124332E20620CC071
:100B50008E3221F426FD6BC1206406C08C3611F460
:100B6000206802C0883641F4F60193FD859193FF19
:100B700081916F018111C1CF982F9F7D9554933042
:100B800028F40C5F1F4FFFE3F9830DC0833631F06B
:100B9000833771F0833509F05BC022C0F801808192
:100BA00089830E5F1F4F44244394512C540115C078
:100BB0003801F2E06F0E711CF801A080B18026FFB1
:100BC00003C0652D70E002C06FEF7FEFC5012C8779
:100BD0000E942C072C0183012C852F77222E17C011
:100BE0003801F2E06F0E711CF801A080B18026FF81
:100BF00003C0652D70E002C06FEF7FEFC5012C8749
:100C00000E9421072C012C852068222E830123FCC1
:100C10001BC0832D90E048165906B0F4B70180E25E
:100C200090E00E9437073A94F4CFF50127FC8591B4
:100C300027FE81915F01B70190E00E9437073110D4
:100C40003A94F1E04F1A51084114510471F7E5C08C
:100C5000843611F0893639F5F80127FF07C0608125
:100C60007181828193810C5F1F4F08C06081718107
:100C7000882777FD8095982F0E5F1F4F2F76B22E15
:100C800097FF09C090958095709561957F4F8F4F24
:100C90009F4F2068B22E2AE030E0A4010E9469072D
:100CA000A82EA81844C0853729F42F7EB22E2AE03A
:100CB00030E025C0F22FF97FBF2E8F36C1F018F437
:100CC000883579F0B4C0803719F0883721F0AFC08B
:100CD0002F2F2061B22EB4FE0DC08B2D8460B82E54
:100CE00009C024FF0AC09F2F9660B92E06C028E0D5
:100CF00030E005C020E130E002C020E132E0F80140
:100D0000B7FE07C060817181828193810C5F1F4FA4
:100D100006C06081718180E090E00E5F1F4FA401EA
:100D20000E946907A82EA818FB2DFF77BF2EB6FEDC
:100D30000BC02B2D2E7FA51450F4B4FE0AC0B2FCBC
:100D400008C02B2D2E7E05C07A2C2B2D03C07A2CAB
:100D500001C0752C24FF0DC0FE01EA0DF11D80813C
:100D6000803311F4297E09C022FF06C07394739466
:100D700004C0822F867809F0739423FD13C020FFEE
:100D800006C05A2C731418F4530C5718732C731490
:100D900068F4B70180E290E02C870E9437077394D3
:100DA0002C85F5CF731410F4371801C0312C24FFB3
:100DB00012C0B70180E390E02C870E9437072C8592
:100DC00022FF17C021FF03C088E590E002C088E73A
:100DD00090E0B7010CC0822F867859F021FD02C047
:100DE00080E201C08BE227FD8DE2B70190E00E9416
:100DF0003707A51438F4B70180E390E00E94370765
:100E00005A94F7CFAA94F401EA0DF11D8081B7013D
:100E100090E00E943707A110F5CF332009F451CE9E
:100E2000B70180E290E00E9437073A94F6CFF701CD
:100E30008681978102C08FEF9FEF2C96E2E10C94A0
:100E4000E307FC010590615070400110D8F78095D0
:100E500090958E0F9F1F0895FC0161507040019086
:100E60000110D8F7809590958E0F9F1F08950F93CE
:100E70001F93CF93DF93182F092FEB018B8181FDF7
:100E800003C08FEF9FEF20C082FF10C04E815F81B3
:100E90002C813D81421753077CF4E881F9819F0141
:100EA0002F5F3F4F39832883108306C0E885F9857B
:100EB000812F0995892B29F72E813F812F5F3F4F85
:100EC0003F832E83812F902FDF91CF911F910F9120
:100ED0000895FA01AA27283051F1203181F1E894D0
:100EE0006F936E7F6E5F7F4F8F4F9F4FAF4FB1E01D
:100EF0003ED0B4E03CD0670F781F891F9A1FA11D18
:100F0000680F791F8A1F911DA11D6A0F711D811D18
:100F1000911DA11D20D009F468943F912AE0269FDD
:100F200011243019305D3193DEF6CF010895462F3C
:100F30004770405D4193B3E00FD0C9F7F6CF462F1D
:100F40004F70405D4A3318F0495D31FD4052419386
:100F500002D0A9F7EACFB4E0A69597958795779543
:100F60006795BA95C9F700976105710508959B01CA
:100F7000AC010A2E06945795479537952795BA9553
:100F8000C9F7620F731F841F951FA01D08952F922C
:100F90003F924F925F926F927F928F929F92AF9209
:100FA000BF92CF92DF92EF92FF920F931F93CF9356
:100FB000DF93CDB7DEB7CA1BDB0B0FB6F894DEBFED
:100FC0000FBECDBF09942A88398848885F846E8413
:100FD0007D848C849B84AA84B984C884DF80EE805D
:100FE000FD800C811B81AA81B981CE0FD11D0FB666
:100FF000F894DEBF0FBECDBFED010895F894FFCF8A
:101000004A756C20313820323031350076312E303F
:1010100000090920202020204669726D77617265E1
:101020002025732C2025730D0A0D0A002020204254
:10103000726F6164636173743A2020202020202540
:1010400064200D0A002020204D61737465722061B8
:101050006464726573733A2030782558200D0A0055
:10106000202020536C61766520616464726573731F
:101070003A202030782558200D0A00202020436F88
:101080006E74726F6C3A202020202020202030784F
:101090002558200D0A0020202044617461207369C6
:1010A0007A653A2020202020202564200D0A002087
:1010B0002020446174613A2020202020202020201C
:1010C000202000255820000D0A2D2D2D2D2D0D0A34
:1010D00000417663526561644D6573736167653A7B
:1010E00020506172697479206572726F722040209D
:0C10F000446174615B25645D0D0A000022
:00000001FF
